:020000020000FC
:1000000009C008C007C006C005C004C003C002C0C4
:1000100001C000C00FE90DBFF894BB9AC39A95EFD9
:100020001FD05FD04CEC24D04EE422D04FEF20D034
:100030004FEF1ED040E01CD092E312D052D04CECD7
:1000400017D044E415D03BD047FFFDCF4AD04CEC4D
:100050000FD04EEB0DD017D0142F15D0242FDACFA0
:100060000F93092F000000000A95E1F70F91089502
:100070000F9308E040FF1AD040FD0DD047950A9538
:10008000C9F70F9108950F9308E0469518D00A9587
:10009000E1F70F910895C39ABB9A95E0E1DFC39809
:1000A00095E0DEDFC39A9CE3DBDF0895BB9AC39A39
:1000B00095E0D6DFC3989CE3D3DFC39A0895C39A33
:1000C000BB9A95E0CDDFC39891E0CADFBB989FE073
:1000D000C7DF4068B39B4F779DE2C2DFC39ABB9AEC
:1000E0000895C39895EFBCDFBBDFBB9891E4B8DF00
:1000F00006B303FD8FCF95EFB3DFB2DFC39ABB9A90
:02010000089560
:00000001FF
