:020000020000FC
:100000001CC01BC01AC006C018C017C016C015C03F
:1000100014C013C0E0E6F0E000810A9501930F3FA1
:1000200059F400810A9501930F3F31F400810A953C
:1000300000830F3F09F401C01895F8940FE90DBF34
:1000400005E003BF02E009BFBB9AC39A95EF66D0F3
:10005000A6D04CEC6BD04EE469D04FEF67D04FEF99
:1000600065D040E663D092E359D099D04CEC5ED095
:1000700044E45CD082D047FFFDCF92E34FD08FD0D5
:100080004CEC54D04EEB52D0E3E6F0E00AEA019398
:1000900009E057D041930A95E1F791D0C49837E22F
:1000A00098D030E796D0C49A9FE038D0C49830E218
:1000B00090D03AE08ED0C49A9FE030D0C49831EE10
:1000C00088D0C49A9FE02AD0C49830EA82D0E3E670
:1000D000F0E00AE031917DD00A95E1F7C49A9FE003
:1000E0001DD0C39A99E11AD0C398C49830E271D058
:1000F00038E06FD0C49AE0E6F0E006E9019300E052
:10010000019300E0008308B7026008BF00E002BF6F
:10011000789405B7006205BF8895FECF0F93092F2D
:10012000000000000A95E1F70F9108950F9308E091
:1001300040FF1AD040FD0DD047950A95C9F70F91A1
:1001400008950F9308E0469518D00A95E1F70F91AE
:100150000895C39ABB9A95E0E1DFC39895E0DEDF8E
:10016000C39A9CE3DBDF0895BB9AC39A95E0D6DF80
:10017000C3989CE3D3DFC39A0895C39ABB9A95E0D2
:10018000CDDFC39891E0CADFBB989FE0C7DF40682E
:10019000B39B4F779DE2C2DFC39ABB9A0895C39881
:1001A00095EFBCDFBBDFBB9891E4B8DF06B303FD7E
:1001B0004FEF95EFB3DFB2DFC39ABB9A0895B89AB9
:1001C000B998BC9ABA9ABB9AC49AC398C298C19873
:1001D00008950F9308E037FDC09A37FFC09895E067
:1001E0009DDFC29A95E09ADFB1993068B19B3F7765
:1001F000C298331F0A9579F795E090DF0F91089523
:00000001FF
