:020000020000FC
:1000000009C008C007C006C005C004C003C002C0C4
:1000100001C000C00FE90DBFF894BB9AC39A95EFD9
:1000200042D082D04CEC47D044E445D06BD047FF5F
:10003000FDCF7AD04CEC3FD04EEB3DD047D0142FC3
:1000400045D0242FB89AB998BC9ABA9ABB9AC49A48
:10005000C398C298C198C49837E276D030E774D07C
:10006000C49A9FE020D0C49830E26ED03AE06CD0C1
:10007000C49A9FE018D0C49830EA66D0312F64D07B
:10008000322F62D0C49AC39A9FE00DD0C398C4980F
:1000900030E25AD038E058D0C49A9AEF04D003D056
:1000A00002D001D0B7CF0F93092F000000000A95AE
:1000B000E1F70F9108950F9308E040FF1AD040FD3B
:1000C0000DD047950A95C9F70F9108950F9308E051
:1000D000469518D00A95E1F70F910895C39ABB9AF7
:1000E00095E0E1DFC39895E0DEDFC39A9CE3DBDFB8
:1000F0000895BB9AC39A95E0D6DFC3989CE3D3DFFB
:10010000C39A0895C39ABB9A95E0CDDFC39891E056
:10011000CADFBB989FE0C7DF4068B39B4F779DE283
:10012000C2DFC39ABB9A0895C39895EFBCDFBBDFCB
:10013000BB9891E4B8DF06B303FD6CCF95EFB3DF56
:10014000B2DFC39ABB9A08950F9308E037FDC09AB7
:1001500037FFC09895E0A7DFC29A95E0A4DFB19978
:100160003068B19B3F77C298331F0A9579F795E0C5
:060170009ADF0F910895D3
:00000001FF
